:020000022000DC
:1060000000000420DD6302001D6402001F64020022
:1060100021640200236402002564020000000000E5
:10602000000000000000000000000000C177020036
:106030002964020000000000E17702002D640200E4
:10604000B5B202002F6402002F6402002F64020028
:106050002F6402002F6402002F6402002F640200EC
:106060002F6402002F6402002F6402002F640200DC
:106070002F6402002F6402002F6402002F640200CC
:106080002F640200197502002F6402002F640200C1
:106090002F6402002F6402002F6402002F640200AC
:1060A0002F6402002F6402002F6402002F6402009C
:1060B0002F6402002F6402000000000000000000B6
:1060C0002F6402002F6402002F6402002F6402007C
:1060D0002F6402002F6402002F640200418002003E
:1060E0002F6402002F6402002F64020000000000F1
:1060F000000000002F640200000000002F64020076
:10610000000000000000000000000000000000008F
:10611000000000000000000000000000000000007F
:10612000000000000000000000000000000000006F
:10613000000000000000000000000000000000005F
:10614000000000000000000000000000000000004F
:10615000000000000000000000000000000000003F
:10616000000000000000000000000000000000002F
:10617000000000000000000000000000000000001F
:10618000000000000000000000000000000000000F
:1061900000000000000000000000000000000000FF
:1061A00000000000000000000000000000000000EF
:1061B00000000000000000000000000000000000DF
:1061C00000000000000000000000000000000000CF
:1061D00000000000000000000000000000000000BF
:1061E00000000000000000000000000000000000AF
:1061F000000000000000000000000000000000009F
:10620000F1EE103A43F08073E1EE103A704700BFB0
:1062100010B5054C237833B9044B13B10448AFF3E0
:1062200000800123237010BD4062002000000000A8
:10623000C8F5020008B5034B1BB103490348AFF38F
:10624000008008BD0000000044620020C8F5020084
:10625000154B002B08BF134B9D46A3F5803A002138
:106260008B460F461348144A121A06F0CDF90F4B0D
:10627000002B00D098470E4B002B00D098470020F1
:10628000002104000D000D48002802D00C48AFF397
:10629000008006F05DF92000290001F059FF06F0AA
:1062A00043F900BF000008000000042000000000C7
:1062B0000000000040620020647A0020000000001E
:1062C0000000000010B5084C0121062001F018FC68
:1062D00020464FF4E13101F053FE20460349BDE86A
:1062E000104001F097BC00BFF465002038F10200B7
:1062F00010B50D4C0D49204601F08CFC0121062003
:1063000001F03EFC4FF47A7000F092F80849204604
:1063100001F080FC0620002101F032FCBDE81040B5
:106320004FF47A7000F084B8F465002060F1020048
:1063300068F102004FF0102310B5D3F8043303F0D6
:106340000703072B1DD00121062001F0D9FB0620F1
:1063500001F034FC0121082001F0D2FB082001F0FB
:106360002DFC0121292001F0CBFB292001F026FC86
:106370000C20012101F0C4FBBDE810400C2001F00D
:106380001DBC134B0122C3F80425D3F80024002AB6
:10639000FBD04FF010200024D0F804230C4922F049
:1063A000070242F00402C0F80423C3F80445D1F800
:1063B0000034002BFBD0BFF34F8F0649064BCA6851
:1063C00002F4E0621343CB60BFF34F8F00BFFDE7E1
:1063D00000E0014000ED00E00400FA050A490B4A24
:1063E0000B4B9B1A03DD043BC858D050FBDC09481B
:1063F00009494FF0AD32026004300439FBD101F09D
:1064000021FAFFF725FF0000D4F50200006000200C
:106410004062002000F8032000080000FEE7FEE7CD
:10642000FEE7FEE7FEE7FEE7FEE7FEE7FEE7FEE744
:1064300038B50B4C8002A4FB003400F0FBF9054694
:10644000002001F059FF00F0F5F9A409431B9C421C
:1064500000D838BD2C44201ABDE8384000F022BBDB
:10646000D34D62102DE9F041044601F03DF8344A65
:10647000344D1368013313602B68002B30D0324E3B
:10648000336833B3E36A3148314907680A689F4289
:1064900038BF03602F48013203EB83030A6000EB2F
:1064A0008300E263211D04F043F801F027F833680C
:1064B0006BB12A68E36AD26A9A4208D2264B4FF03F
:1064C00080525A6040BFBFF34F8FBFF36F8FBDE85C
:1064D000F0812A68E36AD26A9A4298BF2C60D2E7B8
:1064E0002C601368012B02D0E36A174ECBE71948E2
:1064F000DFF89080194F144E04F00AF8184804F0A1
:1065000007F8184804F004F8174804F001F8174891
:1065100003F0FEFF404603F0FBFF384603F0F8FFB0
:10652000134803F0F5FF134803F0F2FF124803F09D
:10653000EFFF124B124AC2F800801F60E36AA2E725
:10654000CC6200205C6200202C630020E06200200E
:10655000DC6200206862002000ED00E0F8620020AC
:106560007C62002090620020A4620020B8620020BB
:106570001863002044630020306300206462002020
:1065800060620020E46200202DE9F843DDE909C4DF
:10659000002C66D0BCF1000F60D00D4696009846E6
:1065A0000223324684F85130A5210746C4F830C092
:1065B000604606F029F82A7884F83420236B29787D
:1065C000321F1A4422F0070601B36B7884F8353085
:1065D0006B78DBB1AB7884F83630AB78B3B1EB785D
:1065E00084F83730EB788BB12B7984F838302B79FD
:1065F00063B16B7984F839306B793BB1AB7984F84E
:106600003A30AB7913B1EB7984F83B30089D042D17
:1066100028BF04254FF00009E5626564201D84F859
:106620003B90C4F8489003F07FFFC5F1050504F1E5
:10663000180003F079FFC4F84C9042463946A56132
:10664000246184F850906462304600F011FF2060AD
:106650002046FFF707FF2046BDE8F8836046BDE807
:10666000F8832046BDE8F8832DE9F0479600804680
:1066700030460D46994603F097FF002862D0074642
:10668000542003F091FF044600285FD000230763E5
:10669000324684F851303846A52105F0B5FF2B78F5
:1066A00084F834302B78D4F830A003B36B7884F8B6
:1066B00035306B78DBB1AB7884F83630AB78B3B17A
:1066C000EB7884F83730EB788BB12B7984F838305D
:1066D0002B7963B16B7984F839306B793BB1AB7945
:1066E00084F83A30AB7913B1EB7984F83B30089DEC
:1066F000042D28BF04250027E5626564201D84F869
:106700003B70A764043E03F00FFFC5F1050504F1DB
:106710001800564403F008FFE764A56126F007005F
:1067200084F85070246164624A46414600F0A0FE3D
:10673000099B206003B11C602046FFF793FE0120F7
:10674000BDE8F0874FF0FF30BDE8F087384603F032
:106750003DFF4FF0FF30F3E770B584B0002503AA8A
:1067600002A901A8CDE9015501F036FD019C002CDC
:1067700046D00298002843D0039E20630223B6002F
:106780003246A52184F8513005F03EFF206B1F4BA7
:106790006363043E0644C4E91155201D84F8385053
:1067A00084F83B50E56203F0BFFE04F1180003F0EB
:1067B000BBFE26F0070605231549A3612A46E564BA
:1067C00030462461646284F8505000F051FE20602D
:1067D0002046FFF747FE0F4B1C6000F0EFFD01283D
:1067E00011D1402383F311880B490C4A0C4B4FF015
:1067F000FF340C6010601D6000F050FE04B070BDEE
:10680000044B00221A6004B070BD00BF49444C45DF
:10681000296B02000C630020106300202C63002011
:1068200058630020024A136801331360704700BFA9
:10683000D8620020014B1868704700BF58630020E1
:10684000024A136818441060704700BF5863002064
:106850002DE9F04F404B1B6883B0002B46D13F4BD6
:106860001E6801361E60002E4ED0DFF808B1DBF83E
:106870000030B3425FD83A4F3B681D68002D65D0A9
:10688000DFF8F480DFF8F4A0DFF8F490002522E0D0
:10689000019103F075FEA36A019904F1180013B188
:1068A00003F06EFE0199E36AD8F8002003EB830041
:1068B00093420AEB800088BFC8F8003003F038FE2E
:1068C000D9F800203B68E16AD26A1B68914228BF70
:1068D0000125002B3AD03B68DB68DC686368211D2A
:1068E0009E420846D4D2CBF8003004E01D4A13681B
:1068F0000133136000251C4B1B68002B0CBF28467E
:10690000012003B0BDE8F08F154B184A18681849EC
:1069100014681C6010600A6801320A601A68126804
:106920005AB9DFF850B04FF0FF33CBF80030DBF846
:106930000030B3429FD90025DDE71B68DFF834B093
:10694000DB68DB685B68CBF8003090E74FF0FF3323
:10695000CBF80030CFE700BFD8620020586300209A
:1069600060620020D46200205C630020646200202A
:106970001463002010630020E062002068620020A1
:106980005C6200202DE9F04F83B000F0ADFD3A4B82
:106990001A68013A1A601B68002B55D1374B1B68E7
:1069A000002B51D0364D2B68002B62D0354EDFF8CE
:1069B000EC80354FDFF8E8904FF0010AEB68DC68B7
:1069C00004F1040B04F1180003F0DAFD584603F05B
:1069D000D7FDE36A326803EB83009342594608EB24
:1069E000800088BF336003F0A3FD3B68E26ADB6A86
:1069F0009A4231D3C9F800A02B68002BDED1234B7B
:106A00001A681268002A2FD01A68214BD268D268FF
:106A100052681A601F4E346844B10125FFF718FF11
:106A200008B1C9F80050013CF8D13460D9F8003001
:106A300053B1194B4FF080525A6040BFBFF34F8F94
:106A4000BFF36F8F012000E00020019000F056FDA1
:106A5000019803B0BDE8F08F2B68002BAED10B4B33
:106A60001A681268002ACFD1094B4FF0FF321A6022
:106A7000D0E7DFF82C90CDE7D8620020CC62002070
:106A800018630020E06200205C6200206062002049
:106A900010630020D462002000ED00E06862002056
:106AA0005C63002070B548B9184B4FF080525A60B3
:106AB00040BFBFF34F8FBFF36F8F70BD144A1549AE
:106AC0001368154D013313600E68044628680430BE
:106AD00003F056FD2B68A4195C600FD20F4B1868A9
:106AE0002968043103F034FD0D4B1A68944238BF15
:106AF0001C60FFF747FF0028D6D070BD094B18680F
:106B00002968043103F024FDF3E700BF00ED00E045
:106B1000D8620020586300205C6200206062002080
:106B200010630020646200202DE9F84F3A4CDFF832
:106B300004913A4D3A4EDFF800813A4FDFF8FCB04D
:106B40002368EBB100F0D0FCD9F80C30D3F80CA0DE
:106B50000AF1040003F014FD2B68013B2B6023684D
:106B6000013B236000F0CAFC9AF85130002B34D06E
:106B7000012BE5D1504603F029FD2368002BE1D11C
:106B80003368012B08D94FF08053CBF8043040BF55
:106B9000BFF34F8FBFF36F8F00F052FED8F8003075
:106BA0001BBB3B68DB6A002BCAD13368012BC7D8FB
:106BB0001D4B1E4A1B6812689B1A012BC0D91C4A28
:106BC000136801331360D8F80030A3B13B68DB6A67
:106BD00003B93368FFF7D6FEB2E7DAF8300003F006
:106BE000F5FC504603F0F2FCAAE73B68DB6A002B99
:106BF000A6D13368A4E73B68DB6A002BEAD133688F
:106C0000012BE7D8084B1868084B1B68C01A0128ED
:106C1000E0D900F0E3FCDDE7D0620020CC62002088
:106C2000686200205C62002010630020586300202E
:106C3000D862002044630020E062002000ED00E004
:106C4000294B1B681BB1294B01221A607047274A48
:106C500070B5274C13602268236812681B6B9A4238
:106C60003CD9244D244B2A6802EB8200800091001D
:106C7000185808BB501E00EB8006B60081009E59D4
:106C800056BB901E00EB8006B60081009E591EBBCD
:106C9000D01E00EB8006B60081009E59E6B9101F99
:106CA00000EB8006B60081009E59AEB9053A02EBB2
:106CB0008200800091001858114403EB81000346C4
:106CC0004168496841600833994204BF496841609E
:106CD000CB6823602A6070BD0246EDE7206821681A
:106CE000343101F075FABCE7D86200205C63002003
:106CF0005C620020E06200206862002070B5174DE1
:106D00002B680C4603F1180103F022FC144B1E689B
:106D10002868043003F034FC631C17D02B68A419D6
:106D20005C6007D30F4B18682968BDE870400431D8
:106D300003F00EBC0C4B18682968043103F008FC02
:106D40000A4B1A68944238BF1C6070BD2968084815
:106D5000BDE87040043103F0EBBB00BF5C62002073
:106D600058630020646200206062002010630020ED
:106D70003063002070B5194D2B6816460C4603F1A0
:106D8000180103F0D5FB164B5EB11B682868043070
:106D900003F0F6FB29681348BDE87040043103F0A6
:106DA000C7BB1E682868043003F0EAFB2B68A419EF
:106DB0005C6007D30C4B18682968BDE8704004314B
:106DC00003F0C6BB094B18682968043103F0C0FB07
:106DD000074B1A68944238BF1C6070BD5C6200208B
:106DE000586300203063002064620020606200204D
:106DF0001063002030B5C368DC6804F1180583B067
:106E0000284603F0BDFB1C4B1B683BBB211D0846FD
:106E1000019103F0B5FB194AE36A106801998342B6
:106E2000174888BF136003EB830300EB830003F074
:106E30007FFB144BE26A1B68DB6A9A4282BF124BEB
:106E400001201860114B1A68126898BF002052B9CF
:106E50000F4B4FF0FF321A6003B030BD0D4829468A
:106E600003F066FBE5E71A68094BD268D2685268FE
:106E70001A6003B030BD00BFD8620020E06200207D
:106E8000686200205C6200205C6300206062002079
:106E90001063002018630020034A044B12681B682B
:106EA000C0E90023704700BF14630020586300202E
:106EB000F0B50D4683B0044600F016FB2B68144A6B
:106EC000591C10681DD0DFF84CC0D4E90061DCF813
:106ED0000070BE4208D0814206D80120019000F027
:106EE0000DFB019803B0F0BD471ABB420BD91B1A2A
:106EF0000B44DCF8001012682B600020C4E900127B
:106F0000ECE70020EAE700232B600120E6E700BF62
:106F10005863002014630020014B01221A6070475F
:106F20005C630020094B186818B9094B1B6813B142
:106F3000704700207047074A074B10681B68013BE9
:106F4000984214BF01200220704700BF1863002040
:106F50005C63002030630020CC620020054B1B687E
:106F600033B1054B1B68002B0CBF0220002070477B
:106F7000012070472C630020D862002070B50446C1
:106F800082B0C8B11D4DC36A2A68D26A934215D235
:106F90008269002A04DB2A68D26AC2F10502826192
:106FA000174E626903EB830306EB83039A420ED00C
:106FB0002B68DB6AE362012002B070BD2B68406C75
:106FC000DC6AA0422CBF0020012002B070BD211D50
:106FD0000846019103F0D4FA2A680A4BD06A1A686D
:106FE0000199E062904200D9186000EB800006EB46
:106FF000800003F09DFA0120DEE700BF5C62002004
:1070000068620020E062002068B130B5836CC16A1C
:10701000426C013B914283B00446836400D023B1AB
:10702000002003B030BD00207047011D08460191CB
:1070300003F0A6FA0A4A636C1068E36283420948C7
:1070400088BF1360C3F1050503EB830300EB8300E6
:107050000199A56103F06CFA012003B030BD00BFB7
:10706000E06200206862002070B130B5426CC36AF3
:10707000914238BF11468B4283B0044602D0826CE5
:10708000012A02D003B030BD70478269114DC16240
:10709000002A03EB83034269A8BFC1F1050105EB98
:1070A0008303A8BF81619A42ECD1011D084601917A
:1070B00003F066FA084BE06A1A680199904288BFAB
:1070C000186000EB800005EB800003B0BDE83040A5
:1070D00003F02EBA68620020E0620020044B1A68B8
:1070E0001AB119688A6C01328A641868704700BF47
:1070F0005C6200202DE9F0431D4EDFF87C9085B0E6
:107100004FF000080CE0DB68DC681F68251D28468E
:1071100003F036FA636A20469847E369012B0AD0E8
:1071200033681A68002AEED1124A11683160136080
:1071300005B0BDE8F083A3693B449F42294610D3C4
:10714000D9F80030002BEBD0CDE900870294FFF78F
:1071500005FF0023D9F800001A46694603F0B6FA85
:10716000DEE730686360246103F0F2F9D8E700BF1E
:107170006063002064630020E46500202DE9F04F87
:10718000894E8A4CDFF82C82894DDFF82CA28BB017
:107190003368D3F800B0BBF1000F00F0A980DB68C2
:1071A000D3F800B0FFF73EFBFFF744FB22688242B2
:1071B000814600F2AE808345206040F2BF8000220D
:1071C0002868ABEB090103F0CFFFFFF7DBFB40B909
:1071D0004FF08053CAF8043040BFBFF34F8FBFF366
:1071E0006F8F2868002202A903F0D4FC0028CFD0BA
:1071F000029B002B73DBDDF81090D9F814301BB123
:1072000009F1040003F0BCF9FFF714FB236898426E
:107210000746C0F08580029B2760092BE1D801A2B8
:1072200052F823F04D7202004D7202004D720200BE
:10723000E3710200A7720200CF7202004D720200D9
:107240004D720200E3710200A77202000398D9F8A0
:107250001830C9F81090C2182CBF01210021BA4281
:10726000C9F804205FD8381A834228D8D9F82430C6
:1072700048469847D9F81C302868012BB2D100281D
:10728000B0D0D9F81820039B00211344CDE9073969
:107290000691FFF763FE002328681A4606A903F04B
:1072A00015FA28689EE7039BC9F81090DA19BA42CC
:1072B000C9F81830C9F8042039D8002B91D0D8F873
:1072C000000009F1040103F043F928688AE799F8FE
:1072D0002C30002B85D1484603F078F981E7039BD9
:1072E000DDE904019847029B002BFFF67AAF82E7A5
:1072F000FFF798FAFFF79EFA22689042814608D37A
:10730000D8F80020C4F800901268B2FA82F252094C
:1073100056E7FFF7EFFEC4F80090FFF733FB60E796
:10732000FFF7E8FE77E7B84201D900299ED0306820
:1073300009F1040103F00CF9286853E7FFF722FB79
:107340003268D268D768391D0846019103F018F9F0
:10735000F8690199012803D07B6A3846984740E7CD
:10736000BA693F610BEB02004845786003D9306889
:1073700003F0EEF8F0E7A9EB0B039A420FD82B6865
:10738000002BE9D00023CDE9063B0897FFF7E6FD87
:10739000002328681A4606A903F098F9DCE7D8F814
:1073A000000003F0D5F8D7E7606300209065002067
:1073B000E46500206463002000ED00E0F0B51F4CA0
:1073C00089B000F091F82568F5B100F097F82068D1
:1073D000C0B1002407AA06A905A8CDE9054400F01C
:1073E00009FFDDE905310222CDE900210293079A68
:1073F000134914482346FFF7C7F8134B1860001BC6
:1074000018BF012009B0F0BD104F114E384603F0EF
:107410007FF8304603F07CF80E4A0F4900950F4B79
:1074200017600E600E4A1021202003F0DDF8206066
:107430000028CAD00B4903F085FEC6E7E4650020AA
:1074400038F202007D710200E865002068650020C6
:107450007C65002060630020646300209465002048
:107460006863002030F20200402383F31188FEE7B6
:1074700030B46FF00203084C40F80C4C4FF08075AC
:1074800040F8045C40F8081C40F8202C40F8243CEC
:1074900030BC4438704700BF697402000F4C08B517
:1074A000E02384F8223000F07BF80D4B0D4A0021D8
:1074B0001960D4F8883043F47003C4F888305368F6
:1074C00043F040435360236943F01003236100F00D
:1074D00065F9402383F31188FEE700BF00ED00E06B
:1074E000EC65002030EF00E0402383F31188024A6E
:1074F0001368013313607047EC650020034A13687A
:10750000013B13600BB983F311887047EC650020D1
:1075100041DF704712DF704770B51D4B00221A60C3
:1075200082B01B680193019BEFF31186402383F324
:1075300011881849184BD1F804451A601B6800934C
:10754000009BFFF777F9201A20F07F4323F0010317
:1075500020F07F459BB96C1E6DB10025FFF778F9CF
:10756000013C631C45EA0005F8D125B10B4B4FF0F7
:1075700080525A6040BF86F3118802B070BDFFF799
:10758000EDFC0228E7D0FFF763F90546EDE700BF01
:1075900040110140001001400011014000ED00E0E9
:1075A0000B4B0C4930B41F200B4DC3F808050122CA
:1075B0000224E020C3F804232A601A60C3F844437D
:1075C00081F811034FF400330B6030BC704700BFEB
:1075D0000010014000E100E0081001402DE9F041F9
:1075E000054684B0EFF3108272B6614CA36883B98C
:1075F000604B61480121A160D3F8801001402160F7
:10760000C3F88000D3F8841061604FF0FF31C3F8F5
:10761000841002B962B6594ED6F80485FFF782FC91
:1076200078B3574F574AAF4228BF2F4608EB07039E
:1076300023F07F4301214FF0000CC6F80813C6F871
:107640004035C2F800C0136801934FF480330198AD
:10765000C6F80433BFF34F8F25BBC6F80833156057
:107660001268494B0392039A1D601B680293414BB9
:10767000029AC6F804134FF40032D6F80415C3F882
:107680008021A3685BB1EFF3108272B6394B216899
:107690001960616859600023A36002B962B604B042
:1076A000BDE8F081F1EE103A23F09F03E1EE103ACD
:1076B000F1EE103A2F4D4023C5F8843103A88DF820
:1076C0000CC0FFF727FF9DF80C30002B4DD12B4647
:1076D00020BFD3F80011D3F804210A43F8D0274B78
:1076E0002848294A4FF48031C3F80813002101606B
:1076F00000680390039811601268029201220299B7
:10770000C3F80423D3F804351A4AA3EB080323F083
:107710007F45BD4228BF3D464FF40033012DC2F8DE
:10772000803120D9681EFFF78BF8184BDB68DA012F
:107730000FD5174A1368DB070BD5164B516803FBAF
:1077400005F5A5F57425A5F51075AD0A01EB8515B0
:107750005560FFF77DF8002893D00F4B4FF0805213
:107760005A6040BF8DE7F4D08BE7FFF7D1FEB6E754
:10777000DC77002000E100E0FC06FFBD00100140C6
:10778000FDFFFF004011014000110140F0ED00E05D
:10779000001000E040420F0000ED00E007480068E4
:1077A00080F3088862B661B6BFF34F8FBFF36F8F67
:1077B0004FF0E00080F3118800DF00BF006002009E
:1077C000064B19680868B0E8F04F80F30988BFF3EA
:1077D0006F8F4FF0000080F3118870475C620020CB
:1077E000EFF30980BFF36F8F144B1A681EF0100F70
:1077F00008BF20ED108A20E9F04F10604DF8043DDD
:107800004FF0400080F31188BFF34F8FBFF36F8FAD
:10781000FFF716FA4FF0000080F3118808BC1968D2
:107820000868B0E8F04F1EF0100F08BFB0EC108AE7
:1078300080F30988BFF36F8F704700BF5C62002040
:10784000704700BF764B1B6810B45C1C00F0B8801A
:10785000744A082B126822D0714B1B68082B72D017
:10786000591C15D06F4A1268082B00F0CB806E4A65
:10787000D2F8883043F47003C2F88830BFF34F8FDA
:10788000BFF36F8F694B6A4A5DF8044B1A6070470B
:10789000684A694B12681B78C2F30312E4E7032AB3
:1078A00040F2A1805F4A1268082BD5D1032AD3D8B1
:1078B0004FF08052614BD2F80414C3F82015D2F86F
:1078C0000814C3F82415D2F80C14C3F82815D2F8FC
:1078D0001014C3F82C15D2F81414C3F83015D2F8CC
:1078E0001814C3F83415D2F81C14C3F84015D2F894
:1078F0002014C3F84415D2F82414C3F84815D2F85C
:107900002814C3F84C15D2F82C14C3F85015D2F82B
:107910003014C3F85415D2F83414C3F86015D2F8F3
:107920003814C3F86415D2F83C14C3F86815D2F8BB
:107930004014C3F86C15D2F84424C3F87025384BB2
:107940001B68082B8CD1374B1A68032A8FD83C4B05
:107950009B5C13B13B4B3C4919603C4B9B5C6BB14E
:107960002F4B3B491B682F4AFB20C1F81805082BF9
:1079700012687FF475AF032A3FF679AF354B9B5CF5
:10798000A3B1354B354C19682068264AA3F594738A
:1079900020F00F001B68126801F00F010143082B53
:1079A00021607FF45DAF032A3FF661AF2C4B9B5CF7
:1079B0005BB31B4B2B4A1B684FF4007111604FE700
:1079C0001D4A1C4B12781B68082A4FEA13137FF4D8
:1079D00043AF13F00C0F06D0164A174B12681B78F2
:1079E000C2F3031260E70E4B1B684FF08042002188
:1079F000581CC2F80C11C2F81011C2F838157FF4E7
:107A000051AFE9E7032A3FF632AF4FF08043D3F896
:107A10000024D20744BF6FF00102C3F8002426E718
:107A2000300100103401001000ED00E00060002083
:107A30000090D003E80F00F0E00F00F000C000401D
:107A400040F202008C5600404881030040F20200E0
:107A500000F0004040F2020058020010E40E004026
:107A600040F2020040960240BFF34F8F0549064B9B
:107A7000CA6802F4E0621343CB60BFF34F8F00BFCC
:107A8000FDE700BF00ED00E00400FA05144A154BC5
:107A9000D2F84025144930B41A604FF080430122D7
:107AA0004FF40030C3F818259A60C1F88000BFF386
:107AB0004F8FBFF36F8F0D4C03F588334FF0A04508
:107AC0004FF480304FF0FF31C3F84803C3F8080388
:107AD0005A609A60C5F80815C4F8081530BC70479C
:107AE00000A00040F065002000E100E0000300502D
:107AF00008B54FF080434E22C3F81C25FFF7B4FFB2
:107B00002F2815D81A4B53F820301F2B86BF194A3F
:107B100003F01F034FF0A042052909D8DFE801F068
:107B20000F03151B210903F5E073032142F823100D
:107B3000704703F5E073104942F82310704703F5CE
:107B4000E073002142F82310704703F5E0730C2125
:107B500042F82310704703F5E073042142F8231024
:107B6000704703F5E073054942F82310704700BFE2
:107B700070F1020000030050040002000C0003003A
:107B80002F280FD80B4B53F820301F2B86BF0A4AE3
:107B900003F01F034FF0A04229B1012101FA03F3C2
:107BA000C2F808357047012101FA03F3C2F80C3519
:107BB000704700BF70F10200000300502F280DD85D
:107BC000074B53F820201F2A86BF064902F01F02E8
:107BD0004FF0A04101239340C1F80835704700BF22
:107BE00070F1020000030050F8B5174682B1054657
:107BF0000E46002402E00134A74207D02B6816F895
:107C0000011B1B68284698470028F4D12046F8BD80
:107C10001446FBE72DE9F0470768DFF894A0D7F892
:107C2000049004460E4600293AD0084605F038FA7A
:107C3000D145804622D1002836D0002503E0013509
:107C4000A845276820D03B6816F8011B20469847B6
:107C50000028F4D12768D7F80490D14518D13B68A3
:107C60000D212046984730B1236820461B680A2121
:107C70009847B8B102352846BDE8F087024631463C
:107C80002046C84727680546D7F80490D145E6D076
:107C9000064920460222C84705442846BDE8F08729
:107CA0000D46DAE70135E6E70546D6E744F202007D
:107CB000E97B020070B592B01D460C46164601A83D
:107CC0004222002104F0A0FC412D5CD9631C022259
:107CD000DBB28DF806408DF80E408DF8264040F658
:107CE000083540F202248DF81E308DF827308DF8CB
:107CF0003130ADF804508DF807208DF812208DF842
:107D000033208DF83B20ADF80840204A069240F21F
:107D1000012505232424ADF810508DF815308DF879
:107D2000164004231A4C8DF81F30012540F22462BE
:107D30008DF81C508DF830300894ADF82420154D86
:107D40000A9508234FF411640A228DF82C30ADF8FF
:107D50002E4040238DF834200F4C8DF83C3001A983
:107D6000304640F2075540F209464222ADF80C6019
:107D7000ADF838508DF84330CDF83F4004F01CFC8E
:107D8000422012B070BD002012B070BD2001052449
:107D900024020205070580030705800210B50020B4
:107DA00000F05EFA044608B1204610BD00F000FA6B
:107DB000204610BD00B5002183B008460DF1070232
:107DC00000F07EFA20B19DF8070003B05DF804FBD7
:107DD0004FF0FF30F9E700BF00B583B001220DF18D
:107DE0000701002000F046FA20B19DF8070003B01B
:107DF0005DF804FB4FF0FF30F9E700BF002000F012
:107E00007BBA00BF70B516466AB10D461446002015
:107E100000F000FA03462946224600204BB100F04C
:107E20005DFA241A01D1304670BD054400F0C0F956
:107E3000EDE7361B304670BD002000F095BA00BF5C
:107E400030B50368134A5B6883B093428DF807101E
:107E500019D10DF107050124002000F0DBF90346DC
:107E600029462246002053B100F038FA241A02D1E4
:107E7000012003B030BD054400F09AF9ECE7C4F1ED
:107E8000010003B030BD01220DF10701984703B096
:107E900030BD00BF057E020070B592B01D460C4695
:107EA000164601A84222002104F0AEFB412D5CD908
:107EB000631C0222DBB28DF806408DF80E408DF86F
:107EC000264040F6083540F202248DF81E308DF829
:107ED00027308DF83130ADF804508DF807208DF83B
:107EE00012208DF833208DF83B20ADF80840204A51
:107EF000069240F2012505232424ADF810508DF898
:107F000015308DF8164004231A4C8DF81F300125CA
:107F100040F224628DF81C508DF830300894ADF892
:107F20002420154D0A9508234FF411640A228DF878
:107F30002C30ADF82E4040238DF834200F4C8DF8B6
:107F40003C3001A9304640F2075540F20946422232
:107F5000ADF80C60ADF838508DF84330CDF83F40A7
:107F600004F02AFB422012B070BD002012B070BD98
:107F7000200105242402020507058003070580026D
:107F8000704700BF01B1704700B583B0084669462D
:107F900000F056F9009BB3F5966F02D003B05DF880
:107FA00004FB00F063F8F9E7074A084B10B400201F
:107FB00002F108044FF47A7130321C60C3E9010108
:107FC0005DF8044B1A61704748F20200F465002026
:107FD00000B51749174883B003F036FB48F2290271
:107FE00042F29A31134803F079FB124803F07AFB0E
:107FF000114A40214FF0804382F82713D3F83854B8
:10800000002468468DF8004003F014F90B4B0193EF
:1080100001A803F03BF903F045F9EB0704D402F0A3
:1080200059FA00F083FDFCE7204602F097F8F6E7E6
:1080300004660020C871002000E100E05DA102009C
:10804000002001F055BD00BF00B5002383B003221E
:10805000CDE9002303490448C822FEF705FB03B01D
:108060005DF804FB7CF20200D17F020008B5052018
:10807000FEF7DEF9BDE80840FFF73ABD30B54FF036
:10808000805387B00C465A6E1B491B6E01A804F042
:10809000E7FF9DF804309DF805509DF806009DF817
:1080A00007109DF8082023809DF809306580A08086
:1080B0009DF80A509DF80B00E18022819DF80C107C
:1080C0009DF80D2063819DF80E30A581E0819DF81B
:1080D0000F509DF81000218262829DF811109DF8CA
:1080E0001220A3829DF8133020831020E582618343
:1080F000A283E38307B030BD84F2020008B5FEF727
:10810000E1F8114BBBB1114B63B1FEF7F1F800F090
:108110004FF8AFF30080FEF7EBF800F049F8AFF34B
:108120000080F2E7FEF7E4F800F042F8FEF7E0F82E
:1081300000F03EF8F6E7FEF7DBF800F039F8FEF75E
:10814000D7F800F035F8F6E7000000000000000066
:1081500000B583B0FFF79AFCFEF7ECF8FFF774FF69
:108160000E4B019301230E4900934FF480620023CC
:108170000C48FEF779FA4FF4407003F063F9FEF70C
:10818000EBFABFF34F8F0849084BCA6802F4E0626C
:108190001343CB60BFF34F8F00BFFDE7086600209D
:1081A00090F20200FD80020000ED00E00400FA05FC
:1081B00008B5002000F0A0F8044B4FF080525A6040
:1081C00040BFBFF34F8FBFF36F8F08BD00ED00E0DE
:1081D000704700BF704700BF044B036010B46423B6
:1081E000034C0C605DF8044B136070470C66002074
:1081F00060660020054B036010B44FF48073044C9C
:108200000C605DF8044B1360704700BFF0670020FE
:108210004468002010B5044600F040FC08B9002076
:1082200010BD00F043FC0028F9D104484FF4567308
:1082300003FB0400007900F0010010BD446C002035
:10824000064B4FF4567202FB003050F8063F0B60AD
:10825000838882798A718B80704700BF446C0020CC
:10826000034B4FF4567202FB0030408B80B27047D4
:10827000446C0020F8B54FF45674104F04FB00F422
:1082800004F1100092B2384400F052FA3E1905464B
:10829000F178002001F016F928B9728BB38A9B1A85
:1082A0009BB23F2B01D82846F8BD04F53672F17811
:1082B0003A44402301F0E2F82846F8BD446C00201F
:1082C000054B10B44FF4567404FB003089B25DF8CE
:1082D000044B103000F0AEBA446C002010B5054BD2
:1082E0004FF4567404FB003092B2243000F00AFBC5
:1082F00010BD00BF446C0020F8B5194D4FF4567303
:1083000003FB00F42E190020B17801F0DBF808B16E
:108310000020F8BD04F5467704F124002F442844DA
:108320003946402200F004FA044608B92046F8BD58
:1083300000F0B4FB0028EBD000F0B8FB0028E7D138
:108340003379DB07E4D5B1783A46234601F096F855
:108350000028EBD1034B1B68DA07D9D500BEF8BD66
:10836000446C0020F0ED00E0044B4FF4567202FB29
:108370000030C38D008DC01A80B27047446C00205D
:10838000F0B51B4C83B000214FF4567220460125F6
:108390000E4604F039F9FF234FF4424204F138014C
:1083A0006371E2802B460827009604F110004FF419
:1083B000807227732581668100F08EF92B464FF479
:1083C000807204F59C71009604F1240000F084F999
:1083D00004F50E71284602F029FB04F522710346CC
:1083E0002846236202F022FB606303B0F0BD00BFA9
:1083F000446C002010B5074C002304F110002360EA
:10840000237100F031FB04F12400BDE8104000F0BE
:108410002BBB00BF446C00202DE9F0414B79022BAF
:1084200082B002D18B79022B04D00025284602B0FD
:10843000BDE8F081CB79062BF7D82D4FBB782BB157
:108440002C4B1B68DB07F0D500BEEEE78B783B704A
:108450000C780C440646617824294FF009050BD1AD
:10846000082A02D80FE0AA420DD323781C442B44DB
:10847000617824299DB2F6D0052916D0042902D1AD
:1084800063790A2B1FD0F978002001F01BF800282F
:10849000CCD17A8BBB8A9B1A9BB23F2BC6D9F97879
:1084A000154A402300F0EAFFC0E72146304600F0BD
:1084B000E3FF0028C4D0A3787B7023781C442B44AE
:1084C00061789DB2DAE70D4A94F8008001920223A8
:1084D00001320092304604EB08011A4600F068FFB2
:1084E0000028ADD005F10E0318FA83F39DB2CAE758
:1084F000446C0020F0ED00E01C6F0020466C002072
:1085000008B50B7803F06003202B09D10A4B8A8849
:108510001878904204D14A78202A03D0012008BD5F
:10852000002008BD054A002AF8D0991D0020AFF3AD
:108530000080012008BD00BF446C00200000000046
:108540000A7802F06002202A10D138B5134A8C88CC
:108550001578A5420ED14C78212C09D81F2C09D9A9
:108560000632072300F0FEFF012038BD00207047CF
:10857000222C01D0002038BD4C88147100F0D8FFA7
:10858000074B43B1C4F3400204F001010020FFF7A0
:10859000F9FC012038BD012038BD00BF446C00202B
:1085A000857F02002DE9F843454EF2788A420D4658
:1085B0001F4655D1A3B1434B06F5367404EB0709AA
:1085C00006F110082BB32146404600F05FF972799E
:1085D000FF2A02D0217891424ED00134A145F2D138
:1085E000394B2BB1738B9BB213B10020AFF30080DA
:1085F000F178002000F066FF28B9728BB38A9B1ACD
:108600009BB23F2B3CD8B3789D4211D00120BDE8EE
:10861000F88321464046013400F038F9A145DFD007
:1086200021464046013400F031F9A145F1D1D7E7A8
:108630002946002000F046FF38B924494022A1F520
:108640003D7000F075F8044600BB002FDED017F037
:108650003F03DBD1B1781A46184600F00FFFD5E78B
:10866000B3788B42E4D01A4B186810F00100CED0DA
:1086700000BE0020BDE8F8830020AFF30080ACE727
:10868000144AF178402300F0F9FEBCE700F006FA46
:108690000028DAD000F00AFA0028D6D13379DB07B7
:1086A000D3D50A4AB178234600F0E8FE0028ADD1C0
:1086B000074B1B68DA07C8D500BE002FA6D0C6E757
:1086C000446C002000000000000000005C6F0020EF
:1086D000F0ED00E01C6F00202DE9F0410446006938
:1086E0009DF818800F4616461D46A8B14FF0FF3181
:1086F00002F0ACFB2069276000236381A680A38180
:10870000E58084F80880E38118B11A46194601F023
:10871000DDFF0120BDE8F08160812160A081A280A1
:10872000E081E38084F808800120BDE8F08100BF8B
:108730002DE9F8434589ADB2002D5DD004460069AE
:108740000F46164618B14FF0FF3102F07FFB6389E8
:10875000B4F804909BB2B34238BF6589E38934BF53
:10876000ADB2354615FA83F34B4548DDE689E3891A
:10877000E1882068B6B2A9EB06081FFA88F89BB218
:1087800008FB01F201FB0301384603F015FFE38902
:10879000A28818FA83F39BB2934224BF9B1A9BB220
:1087A000E3816189E2882368A6EB0906B6B216FA6E
:1087B00081F189B26181E1892E44B6B289B202FBAE
:1087C000013108FB027002FB06F203F0F5FEE389BB
:1087D000A28816FA83F39BB2934224BF9B1A9BB2E2
:1087E000E38163899E1BB6B26681206920B10023B4
:1087F0001A46194601F06AFF2846BDE8F883E38966
:10880000E28821689BB202FB0311384602FB05F2A5
:1088100003F0D2FEE389A28815FA83F39BB2934258
:1088200024BF9B1A9BB2E38163895B1B9BB263816C
:10883000DBE700BF43899BB28B4225D970B5044664
:1088400000690D46164618B14FF0FF3102F0FEFAEE
:10885000E389A28815FA83F189B2914228BF891A67
:108860002368E28828BF89B2304602FB013103F059
:10887000A3FE206930B100231A46194601F026FFF5
:10888000012070BD012070BD0020704738B54389BC
:1088900082889BB29A4204460D462AD0206918B1BC
:1088A0004FF0FF3102F0D2FAA389E28820689BB230
:1088B00002FB0300294603F07FFEA389A28801334F
:1088C0009BB2934224BF9B1A9BB2A38163899BB244
:1088D0009A4212D0638901339BB26381206930B11F
:1088E00000231A46194601F0F1FE012038BD01208F
:1088F00038BD007A0028D1D138BDA3899BB2E3816D
:10890000ECE700BF2DE9F0471546002A3FD00446AA
:1089100000690E4618B14FF0FF3102F097FA237A42
:10892000B4F80490002B35D16289B4F806C0A9EBE5
:10893000020292B2954228BF15462A46A38912FA2E
:1089400083F34B4539DCA089236880B20CFB02F22B
:108950000CFB0030314603F02FFEA389A28815FAE4
:1089600083F39BB2934224BF9B1A9BB2A38163897A
:108970009BB29A426CD0638915FA83F39BB26381F0
:10898000206920B100231A46194601F09FFE2846AF
:10899000BDE8F087A9455FD20023A381E38163810D
:1089A000A389B4F806C04A4612FA83F3A5EB090579
:1089B0004B450CFB05664D46C5DDB4F80C80A0891F
:1089C00023681FFA88F8A9EB080A1FFA8AFA80B20E
:1089D0000CFB0AF20CFB0030314603F0EDFDA389DD
:1089E000A2881AFA83F39BB2934224BF9B1A9BB2CC
:1089F000A38163899BB29A4232D063891AFA83F3C6
:108A00009BB26381A089B4F806C0236808EB050710
:108A1000A7EB0907BFB280B20CFB07F20CFB0030DA
:108A20000AFB0C6103F0C8FDA389A28817FA83F33F
:108A30009BB2934224BF9B1A9BB2A38163899BB2D2
:108A40009A4205D0638917FA83F7BFB2678197E727
:108A5000A3899BB2E38193E7B4F806C02A466DE789
:108A6000A3899BB2E381CDE710B50446006978B1D4
:108A70004FF0FF3102F0EAF9206900236381A381FE
:108A8000E38118B11A46194601F020FE012010BDFD
:108A90006081A081E081012010BD00BF024B1878E9
:108AA000C0F38000704700BF9C6F0020024B187815
:108AB000C0F3C000704700BF9C6F002030B5322269
:108AC00083B00021144803F09FFD14490B46002495
:108AD00033F8080B4A684988009401F085FD104B73
:108AE000186080B10F4C04F18C0554F81C3B98477A
:108AF000AC42FAD1002000F06BFE002000F06AFECC
:108B0000012003B030BD084B1B6813F0010301D0F6
:108B100000BEF6E71846F4E79C6F002004600020D2
:108B2000D06F002098F20200F0ED00E02DE9F04F48
:108B30008BB001F0E7FC002800F0DD80BB4CDFF8D3
:108B40000093DFF808A3DFF808B3804620684FF0F1
:108B5000FF3207A902F01EF8002800F0CC809DF833
:108B60001D30013B072B00F24B83DFE803F09C77BD
:108B70006B615B2D0A04089B002BE7D0099898478E
:108B8000E4E79DF82010AA4B01F07F0003EB4003BF
:108B900003EBD11393F822206FF3000283F8222015
:108BA000002800F0AB809D7C042D00F29F80A14E38
:108BB000099B9DF821209DF81C00C5EBC50506EB1F
:108BC00085056D69A847C1E7994F9DF81C603B7802
:108BD000002043F001033B7000F028FD9DF8205079
:108BE00005F06003602B0DD0402B00F08F8005F066
:108BF0001F05012D00F0EC80022D00F0BB80002D40
:108C000000F09580D9F80030D80700D500BE9DF857
:108C10001C00002100F04CFF9DF81C00802100F09A
:108C200047FF93E7BAF1000F90D0AFF300808DE7D4
:108C3000BBF1000F8AD07E4B1878C0F30010AFF361
:108C4000008083E77B4D05F18C06AB691C3513B1C1
:108C50009DF81C009847B542F7D177E732220021F2
:108C600073489DF81C70734D03F0CEFC724B4FF0AF
:108C7000FF321A605A609A60DA601A615A619A612A
:108C8000DA6100F0C9FC05F18C066B6838461C35CA
:108C900003B19847AE42F8D1684B002B3FF456AF72
:108CA000AFF3008052E73222002161489DF81C702A
:108CB000604D03F0A9FC604B4FF0FF321A605A6020
:108CC0009A60DA601A615A619A61DA6100F0A4FC74
:108CD00005F18C066B6838461C3503B19847AE42E7
:108CE000F8D1534B9DF820205A702FE7544B1B6846
:108CF000D90700D500BE0BB0BDE8F08F099B9DF8E9
:108D000021209DF81C0000F0A3FC1FE74D4B002B19
:108D10003FF47DAF4C4808B100F088FC304608A90C
:108D2000AFF300800546002D7FF410AF6FE7202BD6
:108D300000F09080002B7FF465AF9DF82130092B67
:108D40003FF660AF01A252F823F000BFEF8F0200A0
:108D5000D38F0200058C020011900200058C0200E6
:108D6000B98F0200678F0200058C02004D8F020050
:108D7000218F02009DF8241011F078007FF442AF9B
:108D800001F07F0207EB420707EBD117BA7C009294
:108D9000002B79D19DF82130012B00F0AD80032B01
:108DA00000F09380002B7FF42DAF2B4697F82250D4
:108DB0000DF11A02C5F3400508A93046ADF81A5066
:108DC00000F0D0FB009BFF2B00F08C8045465FE05D
:108DD0009DF824300F2B3FF61AAF3B449B78042BB1
:108DE0003FF615AF134AC3EBC30302EB83073869A1
:108DF00000F01CFCFB6808A93046984700287FF467
:108E0000A5AE9DF8203013F060077FF400AF9DF809
:108E100021300A2B7FF4FBAE2B4608A930460DF11A
:108E20001A028DF81A7000F09DFB8FE6D06F0020BB
:108E30009C6F002098F202009E6F0020000000004E
:108E4000F0ED00E000000000000000000000000065
:108E5000000000009DF824300F2B3FF6D8AE3B44B5
:108E60009B78042B3FF6D3AEBE4DC3EBC30305EB9B
:108E70008305286900F0DAFBEB68304608A99847BB
:108E800000287FF463AEC2E6FF2A3FF4C0AE054679
:108E9000009B042B3FF6B6AEB24FC3EBC30307EB08
:108EA0008307386900F0C2FBFB68304608A9984781
:108EB000C0B99DF8203013F0600F7FF434AF00F09C
:108EC000B5FB002D7FF442AEA1E6BDF82230002BA9
:108ED00000F0F28008A9304600F02AFB009BFF2B2F
:108EE0007FF474AF9DF8203013F0600F7FF42EAE46
:108EF000002000F09BFB29E6BDF82250002DE9D1AF
:108F0000304600F0E5FD97F8223065F3410387F81D
:108F1000223097F8223065F3000387F82230D9E732
:108F20003B789DF8222004925D0702D4002A40F08D
:108F3000D380049B3A78003B18BF012363F382027D
:108F4000304608A93A7000F0F3FAFFE53D78304664
:108F5000C5F3800501230DF11A0208A98DF81A50F6
:108F600000F000FBF2E5BDF82200030A013BC0B2AD
:108F70000E2B3FF64CAE01A252F823F0A190020056
:108F800083900200739002000F8C02000F8C02008D
:108F90004D9002000F8C02000F8C02000F8C02001B
:108FA0000F8C02000F8C02000F8C02000F8C02004D
:108FB0000F8C02002D90020008A800F03DFB9DF8E8
:108FC0002210304600F00CFC3B7843F002033B706B
:108FD000BCE5BDF82230012B7FF419AE3B7830465A
:108FE0006FF3041308A93B7000F0A2FAAEE53B78DA
:108FF000DD0805F00205C3F380131D43304602234C
:109000000DF11A0208A9ADF81A5000F0ABFA9DE56F
:10901000BDF82230012B7FF4FAAD3B78304643F0A7
:10902000100308A93B7000F083FA8FE54E4B002B2C
:109030003FF4EDADAFF30080024608A953883046F7
:1090400000F090FA00287FF481ADE0E5474B002B5B
:109050003FF4DDADAFF30080024600283FF4D2AD0F
:109060001378304608A900F07DFA00287FF46EAD31
:10907000CDE5BDF8241002F041FB02460028EFD1F7
:10908000C5E502F035FB024600283FF4BBAD53882E
:10909000304608A900F066FA00287FF457ADB6E51F
:1090A00002F022FB1223024608A9304600F05AFAC9
:1090B00000287FF44BADAAE5304600F0F9FC97F8A4
:1090C000223043F0020387F8223097F8223043F031
:1090D000010387F82230FDE6501EC0B202F008FB03
:1090E000002832D04378022B2FD13A78C37922F06E
:1090F000600203F0600313433B70438800F10902F0
:10910000C3189A4205935DD2CDF8008003961546A8
:109110006A780B2A20D000230193042A13D1059BDF
:10912000DFF840805A1B92B20026D8F80830039826
:1091300002922946984708F11C08029AF3B2B8B97E
:109140000136052EF1D1DDF80080D9F80030DB07BB
:109150007FF558AD00BE55E52B7801952B441D4693
:109160005A78DAE798F202000000000000000000E0
:10917000082898460346E6D98242E4D3AA78B9186B
:109180008878FF28DFD181F80280019909BB294640
:1091900000224878052808D18E7806F07F0007EB7A
:1091A000400000EBD61080F812800878024492B29A
:1091B00093420144EDD81D44059BAB42A8D8DDF88D
:1091C0000080039E124B002B3FF4B3AEAFF3008040
:1091D000AFE6019881789142B5D100796A799042E1
:1091E000B1D1019AD278012AD1D9023A0331D2B24F
:1091F000781801323146019303F006FA019BC6E765
:10920000D9F80030DA077FF5A1AC00BE9EE400BFBC
:109210000000000030B585B000248D1ECDE901446A
:1092200003948DF804008DF80510032D03D8DFE8B2
:1092300005F038152B17294B1868EAB1002301A94E
:109240006A4601F029FC009B43B1254B4FF0805248
:109250005A6040BFBFF34F8FBFF36F8F05B030BD73
:10926000204B1978C907F9D519781C486FF3C30149
:1092700000681970002AE1D1134601A94FF0FF32AE
:1092800001F024FA05B030BD164B1978C807E5D5B2
:109290001978124841F0080100681970002ACDD1F0
:1092A000EAE7104B0D48197800686FF30001197058
:1092B00019786FF34101197019786FF382011970F1
:1092C00019786FF3C3011970002AB7D1134601A9A9
:1092D0004FF0FF3201F0FAF9D4E700BFD06F002061
:1092E00000ED00E09C6F002030B50B4685B00446D1
:1092F00049681868124D8DF8044002AC03C400237D
:1093000006212868ADF806308DF805103AB91346E5
:1093100001A94FF0FF3201F0D9F905B030BD6A461E
:1093200001A901F0B9FB009B002BF6D0054B4FF0D3
:1093300080525A6040BFBFF34F8FBFF36F8FECE78F
:10934000D06F002000ED00E030B585B0164D0392DF
:109350009DF820402D680022CDE901228DF80810EB
:1093600007218DF804008DF809308DF8051044B9F7
:10937000234601A928464FF0FF3201F0A7F905B0B6
:1093800030BD134601A928466A4601F085FB009BC3
:10939000002BF4D0054B4FF080525A6040BFBFF312
:1093A0004F8FBFF36F8FEAE7D06F002000ED00E032
:1093B0002DE9F84FDDE90A8942B383460C461F4682
:1093C00016464FF0000A14E0E57805F00305BD42AB
:1093D00014D100F017FAE0B1A378DA0914BF89F8C4
:1093E000003088F8003023780AF1010AB2451C44A5
:1093F0000CD06378052B21465846E5D0084B1B68F6
:10940000DA0700D500BE0020BDE8F88F0120BDE8D6
:10941000F88F034B1B68DB07F5D500BEBDE8F88F5E
:10942000F0ED00E030B5124D85B000230824CDE901
:109430000201019328688DF805403AB9134601A945
:109440004FF0FF3201F042F905B030BD6A4601A984
:1094500001F022FB009B002BF6D0064B4FF0805210
:109460005A6040BFBFF34F8FBFF36F8FECE700BF71
:10947000D06F002000ED00E000F0C4B970B50F4DD2
:1094800001F07F0605EB460505EBD11494F8225058
:1094900045F0010584F8225000F0EEF960B994F827
:1094A0002230074A60F3000384F822301368DB0798
:1094B00004F1200400D500BE70BD00BF9C6F0020E9
:1094C000F0ED00E0054B01F07F0203EB420303EBFC
:1094D000D11191F8220000F0010070479C6F00202C
:1094E00010B50C4600F0E4FA094B04F07F0103EBE1
:1094F000410303EBD41191F8223043F0020381F8C9
:10950000223091F8223043F0010381F8223010BD5F
:109510009C6F0020054B01F07F0203EB420303EB3D
:10952000D11191F82200C0F3400070479C6F0020D9
:109530000B4630B40A4C496805461868224603C2F7
:1095400093F9002000239A42C4E902332846A8BFB9
:10955000802130BCB8BF19461A4600F08DB900BF53
:1095600094700020F0B50C46284F496806462068E4
:10957000BA603D4603C50021F981E588AB4228BFAA
:109580002B4683B0BB81A5B11BB352B397F9000042
:10959000402B28BF402300282ADB1D4A304600F01C
:1095A0006BF998B91B4B1B68DB071ED500BE03B0D7
:1095B000F0BD94F90030002BACBF80210021304673
:1095C0002B462A4600F058F90028EBD0012003B0C2
:1095D000F0BD97F90020002AACBF194680211A4639
:1095E000DCE70C4B1B68D9070CD4002003B0F0BD9E
:1095F0001146074801931A4602F0DEFF044A019B18
:109600008021CBE700BE1046E1E700BF9470002048
:10961000A8700020F0ED00E0034B0022C3E9002217
:10962000C3E902221A61704794700020014B18614F
:10963000704700BF947000200346044A59680068D0
:10964000134603C30023C2E902337047947000201D
:10965000F0B53E4C2578C909B1EBD51F83B01F4644
:109660001AD033B13A4B1B68DA075BD4002003B041
:10967000F0BD384B6BB12146AFF30080012003B041
:10968000F0BD0146304600F013FA3046802100F06C
:109690000FFA012003B0F0BD94F90020002A06461D
:1096A00006DBA0680028E1D02B491A4602F084FFAF
:1096B000E589A168E2883D44ADB23944AA42E5811A
:1096C000A16015D03F2F13D9A28994F90000531B34
:1096D0009BB2402B28BF4023002825DB954231D088
:1096E0001D4A0021304600F0C7F80028D1D113E010
:1096F000236923B11549304698470028C1D094F911
:10970000002000239A42ACBF8021194630461A46F9
:1097100000F0B2F80028BCD10D4B1B68DB07A5D5C3
:1097200000BEA4E700BEA1E7954208D01A460A4849
:10973000019302F041FF084A019B8021D2E780217A
:109740000022CFE700210A46CCE700BF947000203A
:10975000F0ED00E000000000A870002042DF70473C
:1097600043DF704744DF704712DF7047144A92F8B6
:10977000C0307BB1134B5B68C3F30803D3B9EFF37D
:109780001083A3B9104B5B681B0610D592F8C0304C
:10979000002BFBD192F8C0300133DBB2012182F8FB
:1097A000C0300160BFF36F8FBFF34F8F704792F8E7
:1097B000C030EFE7014601220448FFF733BE00BF87
:1097C000E870002000ED00E000E100E06D9702008D
:1097D000704700BF014B80225A60704700E100E0F3
:1097E000074BD3F80014D3F8002400200A434FF4A9
:1097F0008001C3F80024C3F85801C3F8041370476C
:109800000070024030B48B780D79194803F07F0165
:10981000DB095C0001EB41021C44D20002EB840234
:1098200002441572ABB9134A01F10C00012303FA8B
:1098300000F0C2F80403D2F8140503FA01F1014361
:10984000C2F81415BFF36F8FBFF34F8F012030BCE8
:109850007047084A881C012303FA00F0C2F8040389
:10986000D2F8100503FA01F10143C2F81015E9E737
:10987000E870002000700240F0B501F07F040E4651
:10988000C90904EB44004F00814D0F44C00000EBB8
:1098900087002F182A500022BB80FA8083B067000F
:1098A000002C36D1002B34D17A4BD3F88034C3F35B
:1098B000C01399422DD095F8C0307BB1764B5B68D0
:1098C000C3F30803002B40F0D380EFF310831BB9E0
:1098D000724B5B68180674D495F8C03095F8C030A8
:1098E0006F4A0133DBB2012185F8C0301160BFF34C
:1098F0006F8FBFF34F8F95F8C030002B5AD10023E4
:10990000314600931A461846FFF71EFD012003B0AA
:10991000F0BDA1B93B1905EBC302DB00527A002A66
:109920005FD1002C56D05B4B04F5947443F824109F
:10993000BFF36F8FBFF34F8F012003B0F0BD2744FB
:1099400005EBC70704EB8402788A3B8A397D1B1A32
:1099500092009BB202F1804202F51C328B4228BF7A
:109960000B46F968C2F80016C2F8043695F8C00034
:109970004C4A0B44FB6002EB840124B280B1464B9D
:109980005B68C3F30803002B78D1EFF310832BBB84
:10999000424B5B681B0621D595F8C030002BFBD1EC
:1099A00095F8C0300133DBB2012185F8C03042F8B0
:1099B0002410BDE795F8C030013BDBB285F8C0301C
:1099C0009DE795F8C030002B88D095F8C030002B6B
:1099D000F7D183E72F4B0122DA64A9E795F8C0306D
:1099E000DEE72C4A55F803C02F4804F5947104EBC8
:1099F000840352F8216002EB8303F6B2C3F800C778
:109A0000C3F8046795F8C03000EB840122B283B13B
:109A1000214B5B68C3F30803002B34D1EFF31083B1
:109A20001BBB1E4B5B6819061FD595F8C030002B79
:109A3000FBD195F8C0300133DBB2012185F8C0308D
:109A400040F82210BFF36F8FBFF34F8F3C4405EBFC
:109A5000C401E400CB882A5916FA83F39BB216445A
:109A600001202E51CB8003B0F0BD95F8C030E0E767
:109A70000B490E480122FFF7D5FC3CE70B480122B9
:109A8000FFF7D0FC42E709480122FFF7CBFCDDE7F6
:109A9000E87000200070024000ED00E000E100E00E
:109AA0005070024004700240287002406D9702001E
:109AB0004A06064B0BBF012241F480715A65C3F878
:109AC0001815BFF36F8FBFF34F8F704700700240C0
:109AD0004B060AD0054B41F48072C3F81815C3F841
:109AE0000C25BFF36F8FBFF34F8F7047007002409C
:109AF0002DE9F04FB14BB24ED3F80003002387B0ED
:109B00001D461F46012101FA03F2104209D056F802
:109B1000234034B1154346F82370BFF36F8FBFF372
:109B20004F8F0133192BEED1EC0700F1B782A80259
:109B300000F1AE8269020CD5A04ED6F8004404F4C0
:109B40004073E205C6F8003400F1D282A30500F1AB
:109B5000DA829C4B2B4043B19B4B93F8C020002AE8
:109B600000F0BF82002283F8C0202E022BD5934B39
:109B7000D3F88024D2B28DF81020D3F88414C9B25F
:109B80008DF81110D3F888048DF81200D3F88C04E6
:109B90008DF81300D3F890048DF81400D3F89404D2
:109BA0008DF81500D3F898048DF81600D3F89C347E
:109BB0008DF81730540601D1052904D0012204A9DB
:109BC0000020FFF791FBE80416D57C4A7E4CD2F8C2
:109BD0000837217ADBB200209942607240F0FC81A4
:109BE000E388A1889BB2994240F2F6810123D364B5
:109BF000BFF36F8FBFF34F8FA90418D56F4A724C14
:109C0000D2F81C3794F82000DBB20021984284F887
:109C1000211040F0C781E38BA08B9BB2984240F2A9
:109C2000C181C2F8A414BFF36F8FBFF34F8F6A04D2
:109C300018D5624A644CD2F8303794F83800DBB259
:109C40000021984284F8391040F0A081E38EA08E64
:109C50009BB2984240F29A81C2F8A814BFF36F8F6A
:109C6000BFF34F8F2B041AD5544A574CD2F84437C0
:109C700094F85000DBB20021984284F8511040F073
:109C80007681B4F84E30B4F84C009BB2984240F262
:109C90006E81C2F8AC14BFF36F8FBFF34F8FEF0329
:109CA0001AD5464A484CD2F8583794F86800DBB2C7
:109CB0000021984284F8691040F04A81B4F8663077
:109CC000B4F864009BB2984240F24281C2F8B014EA
:109CD000BFF36F8FBFF34F8FAE031AD5374A3A4C9D
:109CE000D2F86C3794F88000DBB20021984284F8F7
:109CF000811040F01E81B4F87E30B4F87C009BB235
:109D0000984240F21681C2F8B414BFF36F8FBFF3CC
:109D10004F8F6C031AD5294A2B4CD2F8803794F810
:109D20009800DBB20021984284F8991040F0F2804C
:109D3000B4F89630B4F894009BB2984240F2EA80AE
:109D4000C2F8B814BFF36F8FBFF34F8F28031AD533
:109D50001A4A1D4CD2F8943794F8B000DBB20021B7
:109D6000984284F8B11040F02881B4F8AE30B4F8CD
:109D7000AC009BB2984240F22081C2F8BC14BFF301
:109D80006F8FBFF34F8F114B2B40002B00F0AA8039
:109D90000A4BD3F86C84C3F86C84BFF36F8FBFF3A6
:109DA0004F8F15F4806540F0A9800295064CDFF8CE
:109DB0000CA0DFF81CB02746002613E0007002401C
:109DC00000710240FCFB1F00E8700020000400014D
:109DD00004700240002E00F01681B9F1070F58D030
:109DE000013618370123B34013EA080F5FFA86F9EA
:109DF000F0D006EB860206EB460304EBC3030AEB46
:109E00008202D2F80406598A10FA81F189B2598285
:109E1000B3F812C0398A1FFA8CFC8C454FEA8600D1
:109E200080F0E680B3F812C03B7DA1EB0C0189B253
:109E3000D7F80CC0C2F800C6994228BF19460CEBEF
:109E40000103C2F80416FB6094F8C03000EB0B016C
:109E50007BB1BA4B5B68C3F30803002B40F062810F
:109E6000EFF310831BB9B64B5B6819063DD494F829
:109E7000C03094F8C0300133DBB2012284F8C03026
:109E800040F80B20BFF36F8FBFF34F8FB9F1070F6F
:109E9000A6D1AC4EDFF8B092DFF8BCA2DFF89CB2DE
:109EA000002507E0002D00F0EE80EBB2072B19D063
:109EB0000135183605F110020123934013EA080F0B
:109EC000F0D005EB450304EBC3033188DA8892B286
:109ED00091424FEA450700F29A8001225A72EBB292
:109EE000072BE5D107B0BDE8F08F94F8C030002B08
:109EF000BFD094F8C030002BF7D1BAE7D3F8805424
:109F0000D3F8803483F08003C3F3C0130293C5F306
:109F1000C0154BE7B4F89630B4F89620A4F8943006
:109F200001210023009192B218460621FFF70CFA96
:109F30000CE7B4F87E30B4F87E20A4F87C30012120
:109F40000023009192B218460521FFF7FDF9E0E6E3
:109F5000B4F86630B4F86620A4F864300121002318
:109F6000009192B218460421FFF7EEF9B4E6B4F876
:109F70004E30B4F84E20A4F84C300121002300915B
:109F800092B218460321FFF7DFF988E6E38EE28EEE
:109F9000A38601210023009192B218460221FFF707
:109FA000D3F95FE6E38BE28BA3830121002392B216
:109FB00000911846FFF7C8F939E6B4F8AE30B4F8A6
:109FC000AE20A4F8AC3001210023009192B21846D3
:109FD0000721FFF7B9F9D6E6E388E288A3800121DB
:109FE0000023009192B219461846FFF7ADF903E637
:109FF0005A8A01210023009192B2184649F080014B
:10A00000FFF7A2F9E9E6002D3FF4EAAEF1E605F527
:10A01000947305EB850259F8233056F8041C09EBBC
:10A020008202DBB2C2F80017C2F8043794F8C020ED
:10A03000A8000AEB85015AB1DBF80420C2F308023C
:10A04000002A74D1EFF31082002A62D094F8C02065
:10A0500094F8C0200132D2B2012184F8C02040F827
:10A060000A10BFF36F8FBFF34F8F56F8042C2F44A5
:10A070001A4404EBC70746F8042CFA8813FA82F353
:10A080009BB2FB8011E7029B002B3FF411AF18E756
:10A09000012203210020FFF7BDF84BE52A4B2B4E90
:10A0A00000245C6021469C6230469C60C422DC62D5
:10A0B000DC601C631C615C635C619C639C61DC63B1
:10A0C000DC611C641C625C645C629C6402F09CFA4F
:10A0D000402301222046114633753372FFF79AF868
:10A0E00025E51B4B1B68DF077FF53FAD00BE3CE558
:10A0F000012204210020FFF78DF80123C6F82C353A
:10A10000A3057FF526AD012205210020FFF782F887
:10A110001FE50B4A5268120698D594F8C020002A11
:10A12000FBD195E70B480122FFF77CF955E609487A
:10A1300003930122FFF776F9039B96E700ED00E019
:10A1400000E100E0EC70002000700240E8700020A8
:10A15000F0ED00E06D9702002870024070B5012814
:10A1600082B005D002287DD000283AD002B070BD60
:10A17000AF4BD3F80025002AF8D00022C3F80425FD
:10A18000BFF36F8FBFF34F8FAA498020C1F88400BF
:10A19000BFF34F8FBFF36F8FD3F80013C3F80813CB
:10A1A000C3F80025BFF36F8FBFF34F8F43F2040155
:10A1B00003F18D53096803F5772303F2DB539942CA
:10A1C00000F067819C4B01221A609C4B5A68C2F3D5
:10A1D0000802003A18BF012202210020FFF71AF8F6
:10A1E000C4E7934BD3F80025002ABFD14FF4006297
:10A1F000C3F80024BFF36F8FBFF34F8F904B1B68E2
:10A20000082B00F0C6808A4B0122C3F80025BFF35B
:10A210006F8FBFF34F8F43F2040203F18D53126827
:10A2200003F5772303F2DB539A4200F0DC804FF012
:10A230008043D3F80C24D3F80C34DB0300F1E68020
:10A2400043F204027F4B12689A4200F0E3807E4B97
:10A2500000221A601B6801934FF08043012201998C
:10A260001A6083E7724BD3F80435002B46D1704A4D
:10A27000D2F800341805FBD54FF40063C2F800345F
:10A28000BFF36F8FBFF34F8F6D4B1B68082B47D009
:10A290006749684A6D488023C1F81C35C1F804033A
:10A2A000C2F884315360674E43F204054FF0804496
:10A2B0002B68B34211D0D4F80C24D4F80C34D90351
:10A2C000F6D5D307F4D55A4B0122C3F80425BFF3C2
:10A2D0006F8FBFF34F8F02B070BD002301A88DF8C0
:10A2E0000430FFF741FA9DF80430002BE3D001A8B9
:10A2F000FFF738FA019B002BDAD0E4E743F20402BF
:10A30000504B12689A4200F0B1804FF08043D3F86E
:10A310000C24D3F80C34DD03A9D5D407A7D525E741
:10A320004B4B1B68032BB3D84A4B1A68002A40F0EA
:10A33000BD80494849F27531196002601960404A90
:10A34000434B12681B68082AA2D1032BA0D8434AAA
:10A35000D35C93B13F4B1A68002A40F0AF8040486D
:10A3600049F27531196002601960354A384B12683C
:10A370001B68082A8CD1032B8AD83A493A4B40F201
:10A38000E370402208601A60BFF36F8FBFF34F8FF6
:10A390007EE72F4B1B68032B3FF635AF2F4AD35C6C
:10A3A000ABB12C4B1A68002A40F08C802C4949F242
:10A3B000753203201A6008601A60214A244B126823
:10A3C0001B68082A7FF41FAF032B3FF61CAF214BFD
:10A3D0001A68002A6ED1204949F27532C0201A60ED
:10A3E00008601A600FE7002301A88DF80430FFF71A
:10A3F000BBF99DF80430002B3FF419AF01A8FFF71B
:10A40000B1F9019B002B7FF4B1AE19E7D6073FF5F8
:10A41000ADAE15E7002301A88DF80430FFF7A4F9CD
:10A420009DF80430002B3FF412AFFFF797F99DE63B
:10A430000070024000E100E00400004000ED00E098
:10A4400030010010DBE5B15100010040051480012E
:10A450003401001000EC064014EC064024F3020026
:10A4600014ED06400078024004780240002301A861
:10A470008DF80430FFF778F99DF80430002B3FF495
:10A4800044AF01A8FFF76EF9019B002B7FF46EAE7D
:10A49000EDE601A88DF80420FFF766F99DF8043079
:10A4A000002B3FF48FAEFFF75BF98EE6074B0022DF
:10A4B0001A6044E7054BC0221A60A4E6044B002250
:10A4C0001A6052E7024B03221A6076E714EC06404A
:10A4D00014ED064038B5094D2C780CB1204638BD36
:10A4E000FEF7ECFA18B101232B70204638BD044B5F
:10A4F0001B68DB07F2D500BEF0E700BFAC7100209F
:10A50000F0ED00E0014B1878704700BFAC710020FF
:10A5100000F108034FF0FF310022C0E903338160EE
:10A5200002604360704700BF00230361704700BFB3
:10A530004368026810B49C688C609C684B60013270
:10A54000616099605DF8044B08610260704700BF6C
:10A5500030B40D686B1C10D000F108031C465B681A
:10A560001A68AA42FAD902684B60013299608C607D
:10A570006160086130BC0260704704696368F2E79B
:10A58000036910B4D0E901125C688A6084425160AA
:10A5900008BF5A601A685DF8044B0021013A016156
:10A5A0001A601868704700BF10B582B00190FCF7C0
:10A5B00039F9019801F0F0FF0446FCF7E3F914B112
:10A5C000204602B010BDFDF705FEF9E750B110B509
:10A5D0000446FCF727F9204601F0E6FFBDE81040ED
:10A5E000FCF7D0B9704700BF38B51C469DF8105035
:10A5F00043B3002908BF1A460123C4E90F012260B2
:10A6000084F84630FCF770FFD4E90F132268A2608B
:10A6100001FB03F1CB1A134400200A44FF21A0637D
:10A62000E36084F84410626084F8451004F110007F
:10A63000FFF76EFF04F12400FFF76AFFFCF75EFFEF
:10A6400084F84C50204638BDF8B5064617460D46EE
:10A6500069B100FB01F05030FFF7A6FF044690B34C
:10A66000002200F1500380F84620036007E05020EC
:10A67000FFF79AFF044630B384F846502460C4E9DB
:10A680000F65FCF731FFD4E90F132268A26001FBCC
:10A6900003F1CB1A134400200A44FF21A063E360B6
:10A6A00084F84410626084F8451004F11000FFF74C
:10A6B0002FFF04F12400FFF72BFFFCF71FFF84F8A6
:10A6C0004C702046F8BD00242046F8BD2DE9F04727
:10A6D000044684B01F460192884600F12406FCF728
:10A6E00003FFA26BE36BDFF840939A424FF0000A3E
:10A6F0007CD3022F00F0E880019D002D00F0128134
:10A7000002ADBAF1000F00F0DB80FCF7F7FEFCF7BA
:10A7100089F8FCF7E9FE94F84430FF2B04BF0023CE
:10A7200084F8443094F84530FF2B04BF002384F8AC
:10A730004530FCF7E3FE284601A9FCF7B9FB0028E9
:10A7400040F0F680FCF7D0FEA26BE36B9A4261D03A
:10A75000FCF7D4FEFCF7C8FE94F845506DB2002D0E
:10A7600005DC12E06B1E13F0FF0F5DB20DD0636AC3
:10A77000304653B1FCF73EFB0028F3D0FCF7CCFB8E
:10A780006B1E13F0FF0F5DB2F1D1FF2384F845304B
:10A79000FCF7B4FEFCF7A8FE94F844506DB2002D0F
:10A7A00015DD04F1100A04E06B1E13F0FF0F5DB21B
:10A7B0000DD02369504653B1FCF71CFB0028F3D0A1
:10A7C000FCF7AAFB6B1E13F0FF0F5DB2F1D1FF2364
:10A7D00084F84430FCF792FEFCF7D4F8FCF784FED2
:10A7E000A26BE36B9A424FF0010A82D2226CA56BF6
:10A7F000002A40F0E7802668002E00F0F98001353D
:10A80000A563636A002B7CD1FCF778FE012004B0BD
:10A81000BDE8F08704F1100AFCF770FE019950467C
:10A82000FCF76CFAFCF760FE94F845506DB2002D11
:10A8300005DC12E06B1E13F0FF0F5DB20DD0636AF2
:10A84000304653B1FCF7D6FA0028F3D0FCF764FB8E
:10A850006B1E13F0FF0F5DB2F1D1FF2384F845307A
:10A86000FCF74CFEFCF740FE94F844506DB2002D0E
:10A8700005DC12E06B1E13F0FF0F5DB20DD02369F3
:10A88000504653B1FCF7B6FA0028F3D0FCF744FB6E
:10A890006B1E13F0FF0F5DB2F1D1FF2384F844303B
:10A8A000FCF72CFEFCF76EF8002897D14FF0805390
:10A8B000C9F8043040BFBFF34F8FBFF36F8F8DE7F0
:10A8C0002846FCF7E9FA20E7226CA56B002A92D013
:10A8D0004146E06801F070FE226CE36821689B1A33
:10A8E0008B42E360C2F1000204D263681A44E26062
:10A8F000022F84D1002D83D10123A363636A002B2F
:10A9000082D004F12400FCF775FA00283FF47CAFF4
:10A91000454B4FF080525A6040BFBFF34F8FBFF39B
:10A920006F8F71E7FCF7EAFD284604B0BDE8F087B9
:10A93000FCF7DAFD94F845506DB2002D15DD04F1F9
:10A94000240604E06B1E13F0FF0F5DB20DD0636AA6
:10A95000304653B1FCF74EFA0028F3D0FCF7DCFA8E
:10A960006B1E13F0FF0F5DB2F1D1FF2384F8453069
:10A97000FCF7C4FDFCF7B8FD94F844506DB2002D0F
:10A9800015DD04F1100604E06B1E13F0FF0F5DB23D
:10A990000DD02369304653B1FCF72CFA0028F3D0D0
:10A9A000FCF7BAFA6B1E13F0FF0F5DB2F1D1FF2373
:10A9B00084F84430FCF7A2FDFBF7E4FF002004B06C
:10A9C000BDE8F087414607BBA06801F0F5FDA3682C
:10A9D000216C62680B449342A360FFF410AF013511
:10A9E000A563636A2268A260002B3FF40DAF88E77D
:10A9F00060680135FCF708FBA563636A6660002B9D
:10AA00007FF47FAF002883D1FEE6E06801F0D4FD3B
:10AA1000226CE36821689B1A8B42E360C2F100025A
:10AA2000BFF466AF61E700BF00ED00E0F8B50C468B
:10AA300079B3002501232160C1E90F3581F8463043
:10AA40000646FCF751FDD4E90F322168A56303FBEC
:10AA500002F39A1A0A440B44FF27C4E90131E26069
:10AA600084F8447004F1100084F84570FFF750FD3D
:10AA700004F12400FFF74CFDFCF740FDC4E900554C
:10AA8000E56084F84C602B462A4629462046FFF7AD
:10AA90001DFE2046F8BD00BF2DE9F043044683B0FB
:10AAA00016469946EFF31188402282F31188806B95
:10AAB000E26B90421ED3022B05D0002088F3118850
:10AAC00003B0BDE8F08394F84550226CA76B6DB2DB
:10AAD00032BB2368002B47D001376B1CA76335D0EE
:10AAE00001356DB284F84550012088F3118803B018
:10AAF000BDE8F08394F84550226CA76B6DB2002A34
:10AB0000E7D0002B38D1A06801F056FDA368216C76
:10AB100062680B449342A36024BF2368A360DBE711
:10AB2000E06801F049FD226CE0682168801A8842E3
:10AB3000E060C2F1000205D261680A44E260B9F146
:10AB4000020FC9D1012F38BF0127C6E7636A002B66
:10AB5000CAD004F12400FCF74DF90028C4D0002E1F
:10AB6000C2D001203060A9E760680193FCF74CFA7D
:10AB7000019B63600137B0E7E06801F01DFD226CC6
:10AB8000E0682168801A8842E060C2F10002D6D2F3
:10AB9000D2E700BF2DE9F043044685B00F4601928D
:10ABA000FCF7A2FCA56B002D40F02781019B002B38
:10ABB00000F0D28002A8FCF76FF9DFF88C8204F174
:10ABC0002406FCF79BFCFBF72DFEFCF78DFC94F8AC
:10ABD0004430FF2B04BF002384F8443094F8453000
:10ABE000FF2B04BF002384F84530FCF787FC01A944
:10ABF00002A8FCF75DF900285BD1FCF775FCA36B9C
:10AC0000002B40F0AF80FCF779FC01993046FCF74F
:10AC100075F8FCF769FC94F845506DB2002D05DC21
:10AC200012E06B1E13F0FF0F5DB20DD0636A304669
:10AC300053B1FCF7DFF80028F3D0FCF76DF96B1E79
:10AC400013F0FF0F5DB2F1D1FF2384F84530FCF71C
:10AC500055FCFCF749FC94F844506DB2002D15DD0D
:10AC600004F1100904E06B1E13F0FF0F5DB20DD06C
:10AC70002369484653B1FCF7BDF80028F3D0FCF730
:10AC80004BF96B1E13F0FF0F5DB2F1D1FF2384F877
:10AC90004430FCF733FCFBF775FE002853D14FF02E
:10ACA0008053C8F8043040BFBFF34F8FBFF36F8F9E
:10ACB00049E0FCF719FC94F845506DB2002D05DC15
:10ACC00012E06B1E13F0FF0F5DB20DD0636A3046C9
:10ACD00053B1FCF78FF80028F3D0FCF71DF96B1E79
:10ACE00013F0FF0F5DB2F1D1FF2384F84530FCF77C
:10ACF00005FCFCF7F9FB94F844506DB2002D15DD0E
:10AD000004F1100904E06B1E13F0FF0F5DB20DD0CB
:10AD10002369484653B1FCF76DF80028F3D0FCF7DF
:10AD2000FBF86B1E13F0FF0F5DB2F1D1FF2384F827
:10AD30004430FCF7E3FBFBF725FEFCF7D5FBA36BE8
:10AD400053B1FCF7DBFBFCF7CFFBA56B002D54D117
:10AD5000019B002B7FF435AFFCF7D0FB002005B042
:10AD6000BDE8F083FCF7CAFBFCF7BEFB94F8455046
:10AD70006DB2002D05DC12E06B1E13F0FF0F5DB20B
:10AD80000DD0636A304653B1FCF734F80028F3D095
:10AD9000FCF7C2F86B1E13F0FF0F5DB2F1D1FF2379
:10ADA00084F84530FCF7AAFBFCF79EFB94F844506E
:10ADB0006DB2002D15DD04F1100904E06B1E13F0D7
:10ADC000FF0F5DB20DD02369484653B1FCF712F86E
:10ADD0000028F3D0FCF7A0F86B1E13F0FF0F5DB254
:10ADE000F1D1FF2384F84430FCF788FBFBF7CAFD60
:10ADF000FCF77AFBA56B002DAAD0226C52B1E1685A
:10AE0000636811449942E16024BF2168E1603846DB
:10AE100001F0D2FB013DA56323692BB9FCF76EFB62
:10AE2000012005B0BDE8F08304F11000FBF7E2FF5C
:10AE30000028F3D0044B4FF080525A6040BFBFF35C
:10AE40004F8FBFF36F8FE9E700ED00E02DE9F0438E
:10AE5000044685B000F124060191FCF745FBA36B85
:10AE6000DFF8DC820027B946002B40F0D780019D37
:10AE7000002D00F0418102ADB9F1000F00F0DE803D
:10AE8000FCF73CFBFBF7CEFCFCF72EFB94F84430C0
:10AE9000FF2B04BF002384F8443094F84530FF2B87
:10AEA00004BF002384F84530FCF728FB284601A99D
:10AEB000FBF7FEFF00285FD1FCF716FBA36B002B0E
:10AEC00040F0C880FCF71AFB2368002B00F01B81C0
:10AED00001993046FBF712FFFCF706FB94F845504A
:10AEE0006DB2002D05DC12E06B1E13F0FF0F5DB29A
:10AEF0000DD0636A304653B1FBF77CFF0028F3D0D6
:10AF0000FCF70AF86B1E13F0FF0F5DB2F1D1FF23BF
:10AF100084F84530FCF7F2FAFCF7E6FA94F844506E
:10AF20006DB2002D15DD04F1100904E06B1E13F065
:10AF3000FF0F5DB20DD02369484653B1FBF75AFFAE
:10AF40000028F3D0FBF7E8FF6B1E13F0FF0F5DB294
:10AF5000F1D1FF2384F84430FCF7D0FAFBF712FD5F
:10AF6000002853D14FF08053C8F8043040BFBFF3DE
:10AF70004F8FBFF36F8F49E0FCF7B6FA94F8455056
:10AF80006DB2002D05DC12E06B1E13F0FF0F5DB2F9
:10AF90000DD0636A304653B1FBF72CFF0028F3D085
:10AFA000FBF7BAFF6B1E13F0FF0F5DB2F1D1FF2369
:10AFB00084F84530FCF7A2FAFCF796FA94F844506E
:10AFC0006DB2002D15DD04F1100904E06B1E13F0C5
:10AFD000FF0F5DB20DD02369484653B1FBF70AFF5E
:10AFE0000028F3D0FBF798FF6B1E13F0FF0F5DB244
:10AFF000F1D1FF2384F84430FCF780FAFBF7C2FC60
:10B00000FCF772FAA36BEBB1FCF778FAFCF76CFA79
:10B01000A36B4FF00109002B3FF429AF2268013BDD
:10B02000A363002A00F088802369002B74D1FCF709
:10B0300065FA0127384605B0BDE8F0832846FBF7DE
:10B040002BFF1DE7FCF75AFA002F4AD1384605B00E
:10B05000BDE8F083FCF752FAFCF746FA94F8455045
:10B060006DB2002D05DC12E06B1E13F0FF0F5DB218
:10B070000DD0636A304653B1FBF7BCFE0028F3D015
:10B08000FBF74AFF6B1E13F0FF0F5DB2F1D1FF23F8
:10B0900084F84530FCF732FAFCF726FA94F844506D
:10B0A0006DB2002D15DD04F1100904E06B1E13F0E4
:10B0B000FF0F5DB20DD02369484653B1FBF79AFEEE
:10B0C0000028F3D0FBF728FF6B1E13F0FF0F5DB2D3
:10B0D000F1D1FF2384F84430FCF710FAFBF752FC5F
:10B0E00094E7FCF701FA616A19B1236B1968C1F1A1
:10B0F00005016068FBF7B8FFFCF700FA0027384647
:10B1000005B0BDE8F083FCF7EFF96068FBF736FFA8
:10B110000746FCF7F3F9DBE604F11000FBF76AFEE3
:10B12000002884D0064B4FF080525A6040BFBFF3D6
:10B130004F8FBFF36F8F7AE7FBF7D0FF606073E745
:10B1400000ED00E0074B1A681AB19A6802B1704727
:10B15000012210B403EBC20443F8321060605DF8C2
:10B16000044B7047E877002070B504460E4615463C
:10B17000FCF7BAF994F84430FF2B04BF002384F89D
:10B18000443094F84530FF2B04BF002384F8453049
:10B19000FCF7B4F9A36B002B45D0FCF7A5F994F8A4
:10B1A00045506DB2002D15DD04F1240604E06B1E40
:10B1B00013F0FF0F5DB20DD0636A304653B1FBF759
:10B1C00019FE0028F3D0FBF7A7FE6B1E13F0FF0F4C
:10B1D0005DB2F1D1FF2384F84530FCF78FF9FCF71D
:10B1E00083F994F844506DB2002D15DD04F110067A
:10B1F00004E06B1E13F0FF0F5DB20DD023693046E3
:10B2000053B1FBF7F7FD0028F3D0FBF785FE6B1E6B
:10B2100013F0FF0F5DB2F1D1FF2384F84430BDE895
:10B220007040FCF76BB92A46314604F12400FBF765
:10B23000A1FDB2E7114B1A78EAB90178104810B4B1
:10B240000A464FF0804402F00102C1F34001C4F805
:10B250008015C4F878250268D20706D4E0210122BF
:10B2600080F80013C0F880210260012205485DF8D3
:10B27000044B1A7070470448704700BFF8770020ED
:10B2800000E100E00000AD0B0C00AD0B044B0268C8
:10B290004FF080414FF46070C1F808031A607047A6
:10B2A000B87100204FF080434FF46072C3F804235C
:10B2B000704700BF10B54FF0804386B0D3F8044309
:10B2C000620705D5D3F8082103F58473002A4ED10F
:10B2D000A30603D52A4B1A68002A3FD1600603D57E
:10B2E000284B1A68002A2FD1210602D5264B1A684E
:10B2F0000ABBE20502D5254B1A6892B9A3050ED503
:10B30000234B1A685AB100221A601A68214B059221
:10B31000059A1B68022006B0BDE81040184706B029
:10B3200010BD00221A601B4A1B6804930120136899
:10B33000049A9847E2E700201860164A1B680393B6
:10B340001368039A9847D4E700221A60124A1B68D0
:10B35000029301201368029A9847C5E700201860FD
:10B360000D4A1B6801931368019A9847B6E70022BB
:10B370001A600A4A1B6800931368009A9847A7E767
:10B3800014010040180100401C0100402001004051
:10B3900024010040B8710020B4710020B071002079
:10B3A00070B5274E84B030684FF0FF3203A9FFF725
:10B3B000F1FB0028F7D0039C237A6568052B0CD895
:10B3C000DFE803F02F322A241D03D4E90523D4E952
:10B3D0000301E4690094A847039C25683DB1FBF78D
:10B3E000BDFD0128284626D0FFF7F0F8039CFBF7A7
:10B3F000B5FD012820461BD0FFF7E8F8D3E7D4E9D4
:10B400000523D4E90301A847039CE6E7D4E9041225
:10B41000E068A847039CE0E7D4E90301A847039C40
:10B42000DBE7A847039CD8E7E068A847039CD4E77C
:10B4300001F0BAF8B7E701F0B7F8039CD7E700BF0F
:10B44000C071002070B540230B4D82B0044600222D
:10B45000184604212B60FFF7F7F8084D084B0193BD
:10B4600006460223009307492E60A2B20023064835
:10B47000FBF7FAF802B070BDBC710020C07100206B
:10B48000C471002028F30200A1B302000378002B4E
:10B4900000F09680F0B5044600204A4D014626464D
:10B4A00003E00131635C6618DBB103F14002D2B204
:10B4B000012AF6D9F42BF4D81A0613D41A46012619
:10B4C000A2F55842B2F5006F28BF8919E9D32028A8
:10B4D00007D005EB400266185380635C0130002BF7
:10B4E000E3D1F0BD03F0E002C02A51D003F0F00236
:10B4F000E02A61D003F0F802F02AD2D103F007036A
:10B500000427727802F0C00CBCF1800FC9D196F804
:10B5100002C00CF0C00E02F03F02BEF1800F42EA02
:10B520008313BED10CF03F0C032F4CEA831329D0B8
:10B53000F27802F0C006802EB3D102F03F0242EA58
:10B540008313A3F58032B2F5801F38BF0427A8D239
:10B55000A3F55842B2F5006FA3D3B3F5803F394449
:10B56000B5D31E28BDDCA3F5803305EB40069A0A4F
:10B57000C3F30903A2F52052A3F510537280B380E0
:10B5800002308FE7A3F50062B2F5784FE0D388E789
:10B59000727802F0C006802E03F01F0381D102F002
:10B5A0003F0242EA8313A3F18006B6F5F06F1A4614
:10B5B000BFF477AF022683E703F00F030327A0E76A
:10B5C00018467047F47200202DE9F0411A4DDFF85B
:10B5D0007480AC460446BCE80F0088B003AF0FC7C8
:10B5E00003AE0FCE05F1140E25460FC59EE80700E9
:10B5F000DCF800303B806B4636682E8003C36B4618
:10B6000003CB0E4D21620E49E06104F11C034FF49F
:10B61000807C012740F20946204684F82420C4E9B2
:10B620000538C4E94951A4F81CC184F81E71A4F876
:10B63000206108B0BDE8F08148F3020034F3020055
:10B640003CF3020000010900F8B505460A686E8B5C
:10B650006C692B8B176834449B1B08469BB295F88A
:10B660001C112246B847C8B12218944207D32AE0D9
:10B67000052B15D023781C4483B1A24223D96378CB
:10B68000042BF5D1E378002BF4D195F81C3101336C
:10B6900085F81C3123781C44002BEED10020F8BD26
:10B6A00094F90230002B08DB95F81E31591C85F8FF
:10B6B0001E11A1780B43A370DCE795F81D31591CCE
:10B6C00085F81D11F5E76A8B6B69104480B26883B9
:10B6D000588095F81C211A710120F8BD0181428122
:10B6E000704700BF0120704700487047C8710020B4
:10B6F000014B5869704700BFC871002008B5032886
:10B7000028D8DFE800F00F17230213491348FCF78D
:10B71000B5FC431C5B0043F44073114A9BB21048D4
:10B72000138008BD0D4B0E4AB3F8203153804FF4FF
:10B730004173F4E7094BD3F82401FFF7A7FEC3B226
:10B7400001335B00064A43F44073E8E7034BD3F848
:10B750002801F2E7002008BDF6720020C871002021
:10B76000F47200200020704700207047704700BF2F
:10B770004FF0FF30704700BF4FF0FF30704700BF01
:10B78000704700BF00207047704700BF4FF0FF3088
:10B79000704700BF0148FFF717BF00BFC871002006
:10B7A00002488C22002100F02FBF00BF3873002018
:10B7B00002488C22002100F027BF00BF3873002010
:10B7C0002DE9F0414B79032B82B011D10F79C7EBF2
:10B7D000C7051235ADB295420C4604D8DFF89C80FF
:10B7E00098F8011049B1234B1B68DA0700D500BE59
:10B7F0000025284602B0BDE8F08194F800C004EBB3
:10B800000C02C8F8882092F801E0BEF1210FEAD1BD
:10B8100014F80C1008F1010E08F1020C1144CDE9E6
:10B8200000CE3A460646FDF7C3FD0028DBD0A379DB
:10B8300098F80210012B04BFE37988F80330002246
:10B84000D8F8883088F80420A278B3F8073088F850
:10B850000020A8F806300029CBD0074A3046402304
:10B86000FDF70CFE0028C4D1024B1B68DB07C0D5D6
:10B8700000BEBEE7F0ED00E08073002038730020CA
:10B88000F0B50B7803F01F05012D83B00ED14D4F9D
:10B890008A8897F800C0D2B294450C4628D113F09C
:10B8A0006003064605D14B78062B28D0002003B054
:10B8B000F0BD202BFAD14B78013B0A2BF6D801A220
:10B8C00052F823F097B902008BB9020073B9020055
:10B8D000ADB80200ADB80200ADB80200ADB80200CC
:10B8E000ADB8020063B902004DB902002FB90200E1
:10B8F000354B1B68DA07D9D500BE0020D7E74B8847
:10B900001B0A212B0BD0222BD0D1FFF72BFFFB885A
:10B91000024621463046FDF725FE2846C7E7D7F800
:10B920008820002AC2D01378FDF71CFEBFE74888A4
:10B93000264B013818BF012038710BB1AFF30080DE
:10B9400021463046FDF7F4FD0120B0E74888204B42
:10B95000000A7871002BF3D0AFF300800028EFD1FC
:10B96000A4E7CB88402BA1D81A4AFDF7FBFD0120A4
:10B970009DE73B790DF10702C3F1010401238DF826
:10B980000740FDF7EFFD012091E7134A0123FDF782
:10B99000E9FD01208BE74888CB88104A010AC0B234
:10B9A000FFF7E2FE034628B9074A1268D3077FF57E
:10B9B0007DAFA1E7094A21463046FDF7D3FD0120BE
:10B9C00075E700BF38730020F0ED00E000000000D4
:10B9D00000000000807300203D73002040730020B1
:10B9E00008B5104A8B881078DBB2984212D10B78D8
:10B9F00003F06003202B01D0012008BD4B78092BF8
:10BA0000FAD14888CB884832010AC0B2FFF7AEFEAF
:10BA1000012008BD044B186810F00100EDD000BEF5
:10BA2000002008BD38730020F0ED00E038B50E4D61
:10BA3000AA788A4210D1002104469BB2084605F13B
:10BA40004802FFF793FEA9782046402305F14802FB
:10BA5000FDF714FD10B138BD002038BD034B1B6845
:10BA6000DB07F9D500BE38BD38730020F0ED00E0EB
:10BA700030B5144C83B001254FF4167220460021D6
:10BA800000F0C2FD04F12C012B46201D0095802200
:10BA9000FCF722FE2B46802204F1AC01009504F154
:10BAA0001800FCF719FE04F596712846FEF7BEFF54
:10BAB00004F5BE71034628466361FEF7B7FFA06236
:10BAC00003B030BDFC77002010B5064C20460023A3
:10BAD00040F8043BFCF7C8FF04F11800BDE8104033
